S01600004469676974616C5F44657369676E2E7372656397
S1130000FAC1000017C2000015C2000013C20000AC
S113001011C200000FC200000DC200000BC200009C
S113002009C2000007C2000005C2000003C20000AC
S113003001C20000FFC10000FDC10000FBC10000BF
S1130040F9C10000F7C10000F5C10000F3C10000D0
S1130050F1C10000EFC10000EDC10000EBC10000E0
S1130060E9C10000BFC50000E5C10000E3C1000014
S1130070E1C10000DFC10000DDC10000DBC1000000
S1130080D9C10000D7C10000D5C10000D3C1000010
S1130090D1C10000CFC10000CDC10000CBC1000020
S11300A0C9C10000C7C10000C5C10000C3C1000030
S11300B0C1C10000BFC10000BDC10000BBC1000040
S11300C0B9C10000B7C10000B5C10000B3C1000050
S11300D0B1C10000AFC10000ADC10000ABC1000060
S11300E0A9C10000660385047C039403AB03CD031C
S11300F0E2032204390400000000000000000000B4
S11301005F0000000000000007000700000000146A
S11301107F147F14000000242A7F2A120000002389
S113012013086462000000364955225000000000A4
S1130130050300000000001C2241000000000041F3
S1130140221C0000000000082A1C2A0800000008E5
S1130150083E0808000000A060000000000000083D
S1130160080808080000006060000000000000208B
S1130170100804020000003E5149453E0000000002
S1130180427F4000000000625149494600000022BD
S1130190414949360000001814127F10000000275E
S11301A0454545390000003C4A49493000000001FA
S11301B0710905030000003649494936000000066C
S11301C04949291E000000003636000000000000E6
S11301D0AC6C000000000008142241000000001470
S11301E0141414140000004122140800000000023A
S11301F001510906000000324979413E0000007EA9
S11302000909097E0000007F494949360000003E83
S1130210414141220000007F4141221C0000007F37
S1130220494949410000007F090909010000003ED5
S1130230414151720000007F0808087F000000411E
S11302407F4100000000002040413F010000007F8A
S1130250081422410000007F404040400000007F1D
S1130260020C027F0000007F0408107F0000003EA3
S11302704141413E0000007F090909060000003E9B
S11302804151215E0000007F091929460000002623
S11302904949493200000001017F01010000003F8B
S11302A04040403F0000001F2040201F0000003F4E
S11302B04038403F0000006314081463000000034A
S11302C00478040300000061514945430000007FA5
S11302D04141000000000002040810200000004119
S11302E0417F0000000000040201020400000080BD
S11302F080808080000000010204000000000020D3
S1130300545454780000007F4844443800000038B6
S113031044442800000000384444487F000000386A
S113032054545418000000087E090200000000180C
S1130330A4A4A47C0000007F08040478000000004A
S11303407D00000000000080847D00000000007F2C
S113035010284400000000417F4000000000007CA1
S1130360041804780000007C08047C0000000038B5
S113037044443800000000FC242418000000001845
S11303802424FC00000000007C0804000000004855
S113039054542400000000047F4400000000003C8A
S11303A040407C000000001C2040201C0000003C59
S11303B04030403C00000044281028440000001C49
S11303C0A0A07C000000004464544C4400000008D9
S11303D036410000000000007F00000000000041E2
S11303E036080000000000020101020100000002C2
S11303F005050200000011241FBECFEFD1E2DEBFCD
S1130400CDBF00E00CBF12E0A0E0B2E0EEE5F2E107
S113041000E00BBF02C007900D92A633B107D9F7D5
S11304202AE0A6E3B2E001C01D92A734B207E1F7C7
S113043033D313C7E5CD81B1816081B982B18160C5
S113044082B92FEF83ED90E3215080409040E1F793
S113045000C0000082E18093B800E9EBF0E0808105
S11304608C7F808385E08093BC00089594EA909308
S1130470BC009091BC009923E4F79091B900987F57
S1130480983091F48093BB0084E88093BC00809101
S1130490BC008823E4F78091B900887F883131F06B
S11304A0803231F482E0089580E0089581E0089577
S11304B083E008958093BB0084E88093BC0080911E
S11304C0BC008823E4F78091B900887F883221F04A
S11304D0803321F481E0089580E0089582E0089556
S11304E084E98093BC008091BC0084FDFCCF089516
S11304F0CF93C82F80910102B9DF80E0DBDF8C2F1E
S1130500D9DFEEDFCF9108958EEAF2DF85EDF0DFDB
S113051080E8EEDF88EAECDF8FE3EADF83EDE8DFF3
S113052080E0E6DF80E4E4DF8DE8E2DF84E1E0DF21
S113053080E2DEDF80E0DCDF81EADADF88ECD8DF2E
S11305408AEDD6DF82E1D4DF81E8D2DF8FECD0DF21
S113055089EDCEDF81EFCCDF8BEDCADF80E4C8DF2D
S113056084EAC6DF86EAC4DF8FEAC2CF0895CF9358
S1130570C82F809101027ADF80E49CDF8C2F9ADF00
S1130580AFDFCF910895CF93C62F8055B1DF8C2F65
S1130590880F880F880F8870ABDF8C2F90E09695BA
S11305A087958F70805FA4DFCF910895CF93DF93F9
S11305B0D0E00BC060E08D2FE6DFC0E003C080E038
S11305C0D6DFCF5FCC23DCF7DF5FD83098F3DF9141
S11305D0CF9108950F931F93CF93DF93EC01862F50
S11305E0062F642FD0DF1CC08A3029F460E081E03C
S11305F0800FC9DF219610E010C0E881F0E0B097C9
S1130600EE0FFF1FEE0FFF1FEE0FFF1FEA50FF4F0D
S1130610E10FF11D8491ABDF1F5F183070F3219659
S113062088818111E1CFDF91CF911F910F910895BE
S1130630DF92EF92FF920F931F93CF93DF93B6DF76
S1130640E12CF12C6894DD24D5F827C060E08E2DD0
S11306509ADF00E010E019C0F801ED0DF11DB0972C
S1130660EE0FFF1FEE0FFF1FEE0FFF1FEA50FF4FAD
S1130670EC0FFD1F84917BDF219602C0C0E0D0E027
S1130680C830D1054CF30F5F1F4F00311105B4F38F
S113069080E1D80E8FEFE81AF80A86E0E816F10434
S11306A0ACF2DF91CF911F910F91FF90EF90DF900B
S11306B0089580915A0290E08930910508F025C18F
S11306C0FC018827EE58FF4F8F4FE4C28091410A06
S11306D09091420A9C012F5F3F4F3093420A20932E
S11306E0410AFC01EE5AF94F8081853509F00DC1AC
S11306F082E080935A0208958091410A9091420ABF
S11307009C012F5F3F4F3093420A2093410AFC0122
S1130710EE5AF94F80818A3A21F483E080935A0299
S1130720089510925A0208958091410A9091420AC4
S11307309C012F5F3F4F3093420A2093410AFC01F2
S1130740EE5AF94F8081109250068093510684E04E
S113075080935A0208958091410A9091420A9C0123
S11307602F5F3F4F3093420A2093410AFC01EE5A17
S1130770F94F20818091500690915106820F911D6E
S11307809093510680935006029790933E02809373
S11307903D0285E080935A0208958091410A909128
S11307A0420A9C012F5F3F4F3093420A2093410A33
S11307B0FC01EE5AF94F808180934F0686E08093C6
S11307C05A02089580915006909151060897D0F4EA
S11307D00895E091410AF091420AA091410AB09132
S11307E0420AAE5AB94F2C91E95AFD4F2083209109
S11307F0410A3091420A2F5F3F4F3093420A2093BF
S1130800410A0BC02091410A3091420A80913D0275
S113081090913E0228173907E0F22091410A309165
S1130820420A8217930709F070C087E080935A0246
S11308308091410A9091420A01969093420A8093D2
S1130840410A08958091410A9091420A9C012F5FC8
S11308503F4F3093420A2093410AFC01EE5AF94F6C
S1130860808110924D0680934E0688E080935A0250
S113087008958091410A9091420A9C012F5F3F4F55
S11308803093420A2093410AFC01EE5AF94F208129
S113089080914D0690914E06820F911D90934E06C5
S11308A080934D06892BD1F481E080934B061092FE
S11308B0420A1092410A10925A0210924C06109267
S11308C05106109250068FEE93E0E2E5F6E0DF0168
S11308D09C011D9221503040E1F7089581E08093FE
S11308E04C061092420A1092410A8FEE93E0E2E520
S11308F0F6E0DF019C011D9221503040E1F7109297
S11309005A02109251061092500608958091460A98
S1130910833019F482E08093460A0895ECE5F2E00E
S1130920908190933F028181809340029130B9F18C
S113093038F0923009F44CC0933009F451C0089552
S113094090915B02911108C080933902E6E3F2E0D2
S113095094E0908381838BD180915B02823069F42F
S11309608091400280933B02E6E3F2E097E09083BB
S113097081837DD182E092E081D180915B028130DC
S113098009F040C08091400280933A02E6E3F2E02D
S113099095E09083818387E092E070C1089580910F
S11309A05B02813051F018F0823069F0089581E0E3
S11309B08093380280935B02089582E0809338022A
S11309C080935B0208951092380210925B0208959E
S11309D09DDFE6E3F2E08091460A80831182089568
S11309E080913C02813039F410923C02E6E3F2E05B
S11309F010821182089581E080933C02E6E3F2E0E4
S1130A0080831182089580914F06813029F08230CD
S1130A1029F0833029F4089582E0089581E008954F
S1130A2080E00895EF92FF920F931F93CF93DF938B
S1130A30CDB7DEB7C456D1090FB6F894DEBF0FBEEA
S1130A40CDBF7B018E010F5F1F4F94E6F801119219
S1130A509A95E9F71F928F9381E192E09F938F9388
S1130A601F930F931FD14DE050E0B701C801B2DDD1
S1130A700F900F900F900F900F900F90CC59DF4F65
S1130A800FB6F894DEBF0FBECDBFDF91CF911F919B
S1130A900F91FF90EF90089580E190E0D6D088E721
S1130AA080930102C8DC30DDC3DD2FEF83EC99E0D5
S1130AB0215080409040E1F700C0000077DD789439
S1130AC080915902813091F028F08230A1F1833075
S1130AD0B1F12EC08091430A813051F51092430A3E
S1130AE080914F0690DF8093590222C0CCE5D2E07A
S1130AF0888190E0982F88272981822B9093420245
S1130B0080934102892FB3D080914102B0D08A8171
S1130B1090E0982F88272B81822B90934402809316
S1130B204302892FA4D080914302A1D0109259028C
S1130B3080E090E021C0F2DE10925902F9CF87E004
S1130B4080933602C0E0D0E006C0C09337028091A3
S1130B5000028DD02196CF3FD105B9F3B4F31092A2
S1130B605902E6CFFC01E45AFD4F2081FC01EB5B06
S1130B70FD4F205D208301968A3091059CF345E06A
S1130B8050E064E070E085E492E024DD65E070E02C
S1130B9080914F0647DF66E070E080914B0642DFAC
S1130BA067E070E080914C063DDF40E050E064E097
S1130BB070E084E192E00EDD40E050E065E070E03A
S1130BC08AE192E007DD40E050E066E070E080E218
S1130BD092E000DD40E050E067E070E08AE292E0FD
S1130BE0F9DC6ECF1F920F920FB60F9211240BB641
S1130BF00F922F933F934F935F936F937F938F93B2
S1130C009F93AF93BF93EF93FF93E091410AF091C9
S1130C10420A8091C600EE5AF94F808381E08093A6
S1130C20430A47DDFF91EF91BF91AF919F918F915F
S1130C307F916F915F914F913F912F910F900BBED8
S1130C400F900FBE0F901F90189522E02093C000C4
S1130C50E1ECF0E0208128692083E2ECF0E02081DF
S1130C60266020839093C5008093C40008959091DA
S1130C70C00095FFFCCF8093C6000895CF93DF9307
S1130C80EC0102C0F4DF219688818111FBCFDF9152
S1130C90CF910895EE0FFF1F881F8BBF0790F69129
S1130CA0E02D19940F931F93CF93DF93CDB7DEB745
S1130CB02E970FB6F894DEBF0FBECDBF0E891F89E5
S1130CC086E08C831A8309838FEF9FE79E838D834D
S1130CD0AE01465E5F4F688D798DCE01019610D0CE
S1130CE0EF81F885E00FF11F10822E960FB6F8946D
S1130CF0DEBF0FBECDBFDF91CF911F910F9108953D
S1130D002F923F924F925F926F927F928F929F9217
S1130D10AF92BF92CF92DF92EF92FF920F931F9305
S1130D20CF93DF93CDB7DEB72B970FB6F894DEBF22
S1130D300FBECDBF6C017B018A01FC0117821682B4
S1130D40838181FFBFC1CE0101963C01F6019381ED
S1130D50F70193FD859193FF81917F01882309F425
S1130D60ADC1853239F493FD859193FF81917F0163
S1130D70853221F4B60190E0D6D1E8CF912C212C14
S1130D80312CFFE1F315D8F08B3279F038F480324E
S1130D9079F08332A1F4232D20611DC08D3261F0DE
S1130DA0803369F4232D216016C0832D8260382E90
S1130DB0E32DE4603E2E2AC0F32DF8601DC037FCFD
S1130DC02DC020ED280F2A3040F08E32B9F436FCC5
S1130DD075C1232D2064322E19C036FE06C08AE068
S1130DE0989E200D1124922E11C0EAE02E9E200D13
S1130DF01124222EF32DF0623F2E08C08C3621F4EC
S1130E00832D8068382E02C0883641F4F70193FDA3
S1130E10859193FF81917F018111B3CF982F9F7D9D
S1130E209554933028F40C5F1F4F9FE399830DC0B2
S1130E30833631F0833771F0833509F055C020C013
S1130E40F801808189830E5F1F4F88248394912C3D
S1130E50530112C02801F2E04F0E511CF801A0808A
S1130E60B18036FE03C0692D70E002C06FEF7FEFE2
S1130E70C5014ED14C018201F32DFF773F2E15C0E1
S1130E80280122E0420E511CF801A080B18036FEF8
S1130E9003C0692D70E002C06FEF7FEFC5012DD153
S1130EA04C01F32DF0683F2E820133FC19C0822DD2
S1130EB090E088169906A0F4B60180E290E033D160
S1130EC02A94F5CFF50137FC859137FE81915F01B6
S1130ED0B60190E028D121102A9421E0821A9108C9
S1130EE08114910479F7E1C0843611F0893639F51B
S1130EF0F80137FE07C060817181828193810C5FA4
S1130F001F4F08C060817181072E000C880B990B5C
S1130F100E5F1F4FF32DFF763F2E97FF09C090956C
S1130F208095709561957F4F8F4F9F4FF0683F2E4E
S1130F302AE030E0A30133D1882E861844C08537D7
S1130F4031F4232D2F7EB22E2AE030E025C0932DDC
S1130F50997FB92E8F36C1F018F4883579F0AEC078
S1130F60803719F0883721F0A9C0E92FE061BE2E3F
S1130F70B4FE0DC0FB2DF460BF2E09C034FE0AC0C0
S1130F80292F2660B22E06C028E030E005C020E1FB
S1130F9030E002C020E132E0F801B7FE07C0608112
S1130FA07181828193810C5F1F4F06C060817181C2
S1130FB080E090E00E5F1F4FA301F1D0882E8618C9
S1130FC0FB2DFF773F2E36FE0DC0232D2E7FA22E44
S1130FD0891458F434FE0BC032FC09C0832D8E7E74
S1130FE0A82E05C0B82CA32C03C0B82C01C0B92C62
S1130FF0A4FE0FC0FE01E80DF11D8081803321F4B1
S11310009A2D997EA92E09C0A2FE06C0B394B3946A
S113101004C08A2D867809F0B394A3FC10C0A0FE06
S113102006C0B21480F4280C922C9B180DC0B21484
S113103058F4B60180E290E076D0B394F8CFB214BD
S113104018F42B1802C0982C212CA4FE0FC0B60152
S113105080E390E068D0A2FE16C0A1FC03C088E73C
S113106090E002C088E590E0B6010CC08A2D867835
S113107051F0A1FE02C08BE201C080E2A7FC8DE228
S1131080B60190E050D0891430F4B60180E390E0CA
S11310904AD09A94F8CF8A94F301E80DF11D808127
S11310A0B60190E040D08110F6CF222009F44ECE54
S11310B0B60180E290E037D02A94F7CFF60186811A
S11310C0978102C08FEF9FEF2B960FB6F894DEBF87
S11310D00FBECDBFDF91CF911F910F91FF90EF9085
S11310E0DF90CF90BF90AF909F908F907F906F9044
S11310F05F904F903F902F900895FC0105906150B0
S113110070400110D8F7809590958E0F9F1F089519
S1131110FC016150704001900110D8F780959095C2
S11311208E0F9F1F08950F931F93CF93DF93FB019F
S1131130238121FD03C08FEF9FEF2CC022FF16C037
S113114046815781248135814217530744F4A08195
S1131150B1819D012F5F3F4F318320838C93268182
S113116037812F5F3F4F3783268314C08B01EC01F7
S1131170FB010084F185E02D1995892BE1F6D80156
S113118016968D919C911797019617969C938E9322
S11311901697CE01DF91CF911F910F910895FA0117
S11311A0AA27283051F1203181F1E8946F936E7FA2
S11311B06E5F7F4F8F4F9F4FAF4FB1E03ED0B4E093
S11311C03CD0670F781F891F9A1FA11D680F791FD4
S11311D08A1F911DA11D6A0F711D811D911DA11DE5
S11311E020D009F468943F912AE0269F11243019F5
S11311F0305D3193DEF6CF010895462F4770405D90
S11312004193B3E00FD0C9F7F6CF462F4F70405D3E
S11312104A3318F0495D31FD4052419302D0A9F799
S1131220EACFB4E0A6959795879577956795BA9593
S1131230C9F700976105710508959B01AC010A2E59
S113124006945795479537952795BA95C9F7620F30
S1111250731F841F951FA01D0895F894FFCFEF
S113125E05786672657100616D706C69747564658C
S113126E00257500446174613A00547970653A0042
S113127E5265635F636F6D703A00436865636B73A9
S109128E756D5F663A0075
S9030000FC
