:1000000071C0000081C000007FC000007DC0000002
:100010007BC0000079C0000077C0000075C0000000
:1000200073C0000071C000006FC000006DC0000010
:100030006BC0000069C0000067C0000065C0000020
:1000400063C0000061C000005FC000005DC0000030
:100050005BC0000059C0000057C0000055C0000040
:1000600053C0000053C000004FC000004DC000004E
:100070004BC0000049C0000047C0000045C0000060
:1000800043C0000041C000003FC000003DC0000070
:100090003BC0000039C0000037C0000035C0000080
:1000A00033C0000031C000002FC000002DC0000090
:1000B0002BC0000029C0000027C0000025C00000A0
:1000C00023C0000021C000001FC000001DC00000B0
:1000D0001BC0000019C0000017C0000015C00000C0
:1000E00013C0000011241FBECFEFD1E2DEBFCDBF91
:1000F00000E00CBF22E0A0E0B2E001C01D92A736F4
:10010000B207E1F702D036C07BCFFFCF1F920F922C
:100110000FB60F9211240BB60F922F933F938F932C
:100120009F93EF93FF9380916402909165029C01ED
:100130002F5F3F4F30936502209364022091C600E9
:10014000FC01E050FE4F20832A3039F41092650202
:100150001092640281E080936602FF91EF919F917B
:100160008F913F912F910F900BBE0F900FBE0F906C
:080170001F901895F894FFCFD1
:00000001FF
